:10000000F8FF002011040000431300004313000018
:100010004313000043130000431300004313000088
:100020004313000043130000431300004313000078
:100030004313000043130000431300004313000068
:100040004313000043130000431300004313000058
:100050004313000043130000431300004313000048
:100060004313000043130000431300004313000038
:100070004313000043130000431300004313000028
:100080004313000043130000431300004313000018
:100090004313000043130000431300004313000008
:1000A00043130000431300004313000043130000F8
:1000B00043130000431300004313000043130000E8
:1000C00043130000431300004313000043130000D8
:1000D00043130000431300004313000043130000C8
:1000E00043130000431300004313000043130000B8
:1000F00043130000C937000043130000EB37000032
:10010000431300000D380000431300002F38000097
:1001100043130000513800004313000073380000FF
:100120004313000043130000431300004313000077
:100130004313000043130000413E00004F3E000007
:100140005D3E000043130000431300004313000012
:10015000B53D0000C73D0000D33D0000DF3D00007D
:100160004313000043130000431300004313000037
:100170004313000043130000431300004313000027
:100180004313000043130000431300004313000017
:1001900043130000F53E000043130000592E0000F9
:1001A000892E0000B92E0000851F0000E92E0000F6
:1001B00043130000431300004313000043130000E7
:1001C00043130000431300004313000043130000D7
:1001D00043130000431300004313000043130000C7
:1001E00043130000431300004313000043130000B7
:10040000FFFFFFFFFFFFFFFFFFFFFFFFFEFFFFFFFD
:100410004FF000004FF000014FF000024FF00003DA
:100420004FF000044FF000054FF000064FF00007BA
:100430004FF000084FF000094FF0000A4FF0000B9A
:100440004FF0000C62B603F0FFFBFEE72DE9F0432E
:100450009FB000BF65A6269CDFF8E88A8DF83B4078
:10046000029100240B944FF0FF37044691461D463D
:100470000AE019F8011B0298A0470028029000F03A
:10048000A1800B98401C0B9099F8000050B12528D2
:10049000EFD100210022059106920791089209915F
:1004A0000A9203E00B98A5E041F0010119F8010F51
:1004B0002028F9D023280CD02B2804D02D2805D0B3
:1004C000302809D080E041F00201EFE741F004015B
:1004D000ECE741F00801E9E741F01001E6E70D9291
:1004E0000AE00D98404505DA00EB800002EB40027F
:1004F000303A0D9209F1010999F80020A2F130007B
:100500000A28EED399F800002E2818BF0C9726D1A0
:1005100019F8010F2A2808D12868286009F1010973
:1005200050F8042B28600C9219E02D280CBF09F11B
:100530000109002000220C920BE040B90C9A4245C0
:1005400005DA02EB820203EB4203303B0C9309F124
:10055000010999F80030A3F130020A2AEDD3ADF871
:100560003810304699F8001000F0A0FE08B119F8D4
:10057000010B8DF83A009DF83A00682805D199F8EA
:10058000000068280CD1622106E06C2804BF99F8AD
:1005900000006C2804D171218DF83A1009F101098D
:1005A00010A804902A4619F8013B6946204600F03D
:1005B00061F838B910AA6946204600F091F9002880
:1005C0007FF562AF384615E02A2888D12A682A606C
:1005D00052F8040B2A6000280D9003D540420D907C
:1005E00041F0040109F101098CE70000686A6C74AC
:1005F0007A4C00001FB0BDE8F083622820D0682844
:1006000011D06A2803D06C2827D0712825D108681A
:10061000C01D20F007000860D0E900230830086002
:10062000194610467047002A0A680A60106803D00D
:10063000121D0A6000B217E0121D0A6080B217E0B6
:10064000002A0A680A60106803D0121D0A6040B2CE
:100650000AE0121D0A60C0B20AE0002A0A680A60B5
:10066000106803D0121D0A60C1177047121D0A607E
:100670000021704770B51C460D46B4F125002E6967
:10068000114600F01B811C386AD0001F022867D970
:10069000133843D0093863D0801E16D0401E1ED0B8
:1006A000401E02285CD9001F19D0401F00F0838033
:1006B000401E33D0401E00F0CD80C01E00F0DC8014
:1006C000801E2BD0C01E29D0FEE06869421C6A61E2
:1006D0000A680A6052F8043B0A603354FEE095F859
:1006E0003A000122FFF789FFC5E900010023994282
:1006F00004DA6869411C69612D220DE0288F8107A9
:1007000004D56869411C69612B2205E0C00722D528
:100710006869411C6961202232541CE095F83A0056
:100720000022FFF76AFFC5E9000195F838000107CC
:1007300011D5D5E900230020834208BF82420AD0A8
:1007400044F02000782806D1686930213154401CDB
:10075000421C6A613454214668693044E86087E08D
:100760000868C01D20F007000860D0E900230830A9
:100770000860C5E90023D5E90001C80F04D0686905
:10078000411C69612D220DE0288F810704D568691D
:10079000411C69612B2205E0C00704D56869411C32
:1007A00069612022325468693044E8602146284655
:1007B00000F0C8F992E005F13A02507820B14FF00C
:1007C000FF340FF6502062E01078622808D06828C5
:1007D00024D06A2812D06C282ED071280ED02BE09D
:1007E0000A680A6052F8040B0A6020B94FF0FF341F
:1007F0000FF638204BE0E96A01706FE00A680A6082
:1008000052F8040B0A6020B94FF0FF340FF61C2099
:100810003DE0EA6AD317C0E900235FE00A680A6096
:1008200052F8040B0A6020B94FF0FF340FF6FC10A9
:100830002DE0E96A018051E00A680A6052F8040B71
:100840000A6020B94FF0FF340FF6E0101FE0E96AAC
:10085000016043E00A680A6052F8040B0A60002154
:1008600020F0000221F0FF33C5E90023EE6078217B
:10087000284600F0BBF831E00868086050F8044BE7
:100880000860EC603CB94FF0FF340FF6B81000F090
:100890001DFD201A70BD2E6B002E04D5204600F0E1
:1008A00035FD044608E032460021204600F04AFDAE
:1008B000002814BF041B3446AC610FE06869411C7A
:1008C00069612522325409E06969481C6861252262
:1008D0007254210002D0431C6B613454002070BD5F
:1008E0002DE9FC410F46064690467A6B7869396AD5
:1008F000BC6A121AB869521A796A121AF869521A3D
:10090000121A97F83800141B41070FD42020002C2E
:100910008DF800000ADD254601236A463946304637
:1009200000F060FC00285DD16D1EF5D17B69424668
:100930003946304600F056FC002853D130208DF85F
:1009400000003D6A002D09DD01236A463946304624
:1009500000F048FC002845D16D1EF5D1BB69FA684E
:100960003946304600F03EFC00283BD130208DF85F
:1009700000007D6A002D08DD01236A4639463046B5
:1009800000F030FC70BB6D1EF6D1F868B969FB69E8
:1009900042183946304600F025FC18BB30208DF84F
:1009A0000000BD6A002D08DD01236A463946304645
:1009B00000F018FCB0B96D1EF6D197F83800410769
:1009C0000DD52020002C8DF8000008DD01236A469B
:1009D0003946304600F006FC20B9641EF6D10020EE
:1009E000BDE8F6814FF0FF30BDE8F6812DE9FC4708
:1009F00007468C463E69BCF16F0F08BF082405D03E
:100A00004CF02000782814BF0A2410243C25D7E994
:100A10000023BCF1640F18BFBCF1690F90469946E2
:100A200006D100218B4203DAD8F1000869EB4909AD
:100A30004FF0000AD14508BFD0451FD1386BE8B947
:100A4000082C4BD197F83800010747D530203B25BB
:100A500086F83B0042E000280ED597F8380000F0F9
:100A60001400102808D17B6B7969386A5B1A1B1A4D
:100A70009A1A002AC8BF3A62BDE8F3878DF800C011
:100A8000404649462246E31700F088FC3032D0B297
:100A90006D1E3A28019504DB9DF80000A0F151017C
:100AA0008A187255404649462246E31700F076FC04
:100AB00089468046D14508BFD04503D0F8687119F2
:100AC0008842DDD3082C09D197F83800010705D5F5
:100AD000705D302802D06D1E30207055C5F13C028B
:100AE000BA617119F960386B8242B4DA821A3A62DB
:100AF0004FF6EF70398F01403987BDE8F3872DE954
:100B0000D04306460F4614464FF00008DFF83894ED
:100B100012E0E00707D542464B463046394600F022
:100B200055FD06460F464046494642464B4600F0B4
:100B30004DFD641080468946002CEAD13046394686
:100B4000BDE8D0832DE9F34F054641F020048DB078
:100B5000D5E90089612C02AE09D0286B002848BF76
:100B6000062003D408BF672C01D101202863D5E9F2
:100B7000002358004015401C0ED119030CD003204F
:100B8000A8619DF8381061391A2902D20FF2D0619C
:100B900011E00FF2D0610EE059004915491C0FD148
:100BA00018030DD10320A8619DF8381061391A2966
:100BB00014D30FF2B861E868032200F0D9FDD3E145
:100BC000194621F00043B3F5801F10460DD20027CF
:100BD000BB4208BFBA42019703D111E00FF288610E
:100BE000E9E701AA00F018FE0AE0DFF8607307EBFE
:100BF0001352DFF85C3301921940DFF85833194380
:100C0000C5E90001612C0ED1E86830210170821C19
:100C1000EA609DF8381061290CBF78215821417095
:100C20006869801C6861D5E900AB2BF000430020A7
:100C30002AF00002834204BF8242002300F05B815D
:100C4000612C40F0AA80286B002847BF2121009129
:100C5000401C0090009F7F1C404649460022002314
:100C600000F012FED94601998DF8082038BF89F0AE
:100C70000049091F002FD04601910DF1090040F3F2
:100C80004981B349DFF8D0B20C9106464046494647
:100C90000022002300F010FE80F03B814800400D50
:100CA00000F11C0211D0002A0FDD40F2FF708242D9
:100CB00005DB09F0004040EA0B01002013E00C982E
:100CC000014041EA025140460DE029F00043002076
:100CD00028F00002834208BF82420FBF40461C2218
:100CE000404600F001FE8046894600F09BFEFF1F53
:100CF000002F044609DD00F0B3FE02460B464046D5
:100D0000494600F0BFFE80468946F01D072104E0F9
:100D100004F00F0200F8012D2411002C01DD491E02
:100D2000F6D5491E5CBF002200F8012DF9D5ECE094
:100D30000020194602AA0A4400E05B1E12F801498D
:100D4000491E8442F9D00F2804D10DF10900425CFC
:100D5000521C4254002904D50198001D02AE5B1CB0
:100D60000190591E12D49DF838007218A0F13A076C
:100D7000147804F130085FFA88F43A2CA8BFB8441C
:100D8000491E02F80189F3D58DF83800286B002838
:100D900040F1B080591E2963ACE04046494600222C
:100DA000002300F071FD019938BF89F0004947F236
:100DB00097504143694A91FBF2F20192D2F1070246
:100DC00004DD40464946FFF79AFE0AE05242002001
:100DD0006349FFF794FE02460B464046494600F041
:100DE000C3FE8046662C286BDFF878B106BF019FF2
:100DF0000A3706273F18142FC8BF142730208DF854
:100E0000080089460DF1090000E03046002F34DD6E
:100E100006464046494600F0CBFF01460A4606F129
:100E2000080304200A26B2FBF6F606EB860EA2EBB8
:100E30004E02303203F8012C0A22B6FBF2F202EB2A
:100E4000820EA6EB4E063036401E03F8026DE9D145
:100E5000083F002F03F10806D7DD084600F0BCFF6D
:100E600002460B464046494600F00CFE00225B4617
:100E700000F0ACFB80468946CBE70DF10901401A32
:100E80000DF1090604E00199491E401E0191761CEE
:100E900031783029F7D0662C02D10199491C03E042
:100EA000652C0CBF012100212B6BCB189842B8BFD9
:100EB000431E002B1ED4834204DAF05C3528A8BF01
:100EC000392000DA30201946721E02EB010800E0DA
:100ED0005B1E18F80199491E8145F9D0392802D1C5
:100EE000705C401C7054002904D50198401C1646C3
:100EF0005B1C0190019800B200901BB29DF8381065
:100F00003246284600F034F82EE0C61D002F3FF789
:100F1000BDAE30460DF10901401A009903468842E2
:100F2000C8BF0B46002B0DF109063FF52FAF8342DA
:100F3000BFF6FEAE0DF10900C15C07297FF7F8AEE0
:100F40000F20F6E6CBCCCC0C0000244002FCFFFFC7
:100F5000FFFF0F800000E03F0000F07FA08601004F
:100F60000000F03F84D797410FB0BDE8F08F00003C
:100F70002DE9FC43054683B01F46D5F83080002F8D
:100F8000164602DC5FF00107B9A6894649F0200049
:100F9000BDF93040662808BF641C17D0672840F0B0
:100FA000888014F1040FC0F28A80444580F2878063
:100FB00095F83800641C010702D44745B8BFB8460D
:100FC00020B2B8EB000848BF4FF000080FFA84F9D0
:100FD000E868A969B9F1000F27DC4A1C30234354A3
:100FE000B8F1000F03DC95F83800010703D5E96874
:100FF0002E208854521C18EB090FB8BFC8F100040A
:1010000024B260426862A044B845AA61B8BF4746AE
:10101000EB68A8693FB2EF613A463146184400F0E8
:10102000A7FBA8EB0700A862C5E022B297420844DC
:1010300019DA3A46314600F09BFBA8693818A9EB4B
:101040000707B8F1000FA8616F6203DC95F838104C
:101050000A0705D5EA682E211154E869401CE861A9
:10106000C5F82880A7E0314600F082FBA8693F1B45
:10107000B8F1000F484403DC95F838100A0703D58F
:10108000EA682E211154401CA86138B28045EB68F3
:10109000A869B8BF47463AB206EB0901184400F008
:1010A00067FBA9693FB27918A8EB0707A9616F62CE
:1010B00081E0B9F1610F16D14FF0700918E0474592
:1010C00004DA95F838100A0758BFB846B8F1010895
:1010D00048BF4FF00008B9F1670F14BF4FF0450942
:1010E0004FF0650904E0B9F1410F08BF4FF0500916
:1010F000A969EB68481CA861B8F1000F16F8012B2C
:101100005A5403DC95F838100A0719D5EA68431CCD
:10111000AB612E211154B8F1000F11DD7F1E38B2E2
:1011200031468045EE68B8BF47463AB2F01800F045
:101130001FFBA8693FB23818A861A8EB07006862D6
:10114000E868A9690844002C80F8009003D42B2299
:101150004270811C03E02D2141706442811C0020FB
:101160006A460AE023460A2493FBF4F404EB84065F
:10117000A3EB460302F8013B401C24B2002CF1DC37
:10118000012806DC49F02002652A04BF302201F85C
:10119000012B48B9302001F8010B07E0401E1DF873
:1011A0000030303301F8013B0028F7DCEA68A86919
:1011B0001044091AE96195F8380000F0140010286D
:1011C0000DD16A69A969686A8A18E9698218A86AEA
:1011D0008A188218686B8242BCBF821A2A6205B0E4
:1011E000BDE8F083F8B505460E4617461C460020BC
:1011F00074B117F8011BB068A847B06030B1F06A4D
:10120000401CF0620020641EF3D1F2BD4FF0FF30AD
:10121000F2BD00007072696E74665F733A20256ECD
:1012200020646973616C6C6F776564007072696EBD
:1012300074663A2062616420256E20617267756D64
:10124000656E74007072696E74665F733A206261D5
:101250006420257320617267756D656E74000000EF
:101260006E616E004E414E00696E6600494E46004A
:10127000300030B4002513E050F8042BD30744BFEE
:10128000A9F101039A18091F042942F8045BFAD254
:1012900013468C0744BF15809B1CC90748BF1D70AF
:1012A00050F8041B0029E7D130BC70470278C9B25E
:1012B0008A421AB11CBF10F8012FF9E718BF0020AD
:1012C00070470268531C03601170704780B500B905
:1012D00006A005490B681BB122220021984701E0B6
:1012E00000F087FD222002BD009FFF1F636F6E7319
:1012F000747261696E742068616E646C65723A2004
:10130000626164206D6573736167650000F10103BC
:10131000810704D010F8011B820781B1FAD102685D
:10132000A2F10131914311F0803104BF50F8042F34
:10133000F6E709BAB1FA81F100EBD100401CC01AFE
:1013400070477047C9B2830706D0521E22D310F8E7
:10135000013B9942F7D11FE0083A13D302F104028E
:1013600041EA012141EA014150F8043B121F21BF2B
:101370004B40A3F1013C2CEA030C1CF0803FF3D05E
:10138000C9B2001F083210F8013B521E28BF91EA73
:10139000030FF8D818BF0120401E7047BBBBE1B156
:1013A000B2F5803F80F07E80022A1ED98C46B1FBC8
:1013B000F2F102FB11C31B0443EA1043B3FBF2FC3E
:1013C00002FB1C3380B240EA0343B3FBF2F002FBA2
:1013D000103240EA0C4000237047022A05D98446A7
:1013E000B0FBF2F002FB10C270474AB105D100F029
:1013F000010249085FEA300070470022002370476D
:1014000000F0FABC0B00020000210020704790425F
:1014100071EB030CF6D3B3F5803F2FD2F0B5B3FADE
:1014200083F7B1FA81F4A7F10F0E3D1B5340CEF1C3
:10143000200602FA0EF2F3415340B5F10F0746D8E9
:101440000F3C2C444140C4F12006A040F1414140F2
:10145000B1FBF3F603FB1611A2FB0645001BA941E5
:1014600002D2761E8018594180EA010221FA0EF359
:1014700062FA0EF200215A403046F0BD30B4B1FBA2
:10148000F3FC03FB1C11A2FB0C45001BA94103D27A
:10149000ACF1010C8018594130BC02460B46604645
:1014A00000217047B2F1807F65D3F0B5B2FA82F7C0
:1014B000B1FA81F4C7F10F063D1B22FA06F307F1DA
:1014C000110EF24120355A40B5F10F07B8D941400D
:1014D000C4F12006A040F1414140B1FBF3FC03FB05
:1014E0001C11A2FB0C45001BA94103D2BCF1010C4D
:1014F000801859410F2F12D30F3FC90341EA5041C1
:10150000B1FBF3F603FB1611A2FB0645D4EBC0308A
:10151000A94102D2761E8018594146EACC3C07B355
:101520004140C7F12006B840F1414140B1FBF3F61C
:1015300003FB1611A2FB0645001BA94102D2761E31
:101540008018594180EA010221FA0EF3C7F1200404
:1015500062FA0EF20CFA07F05A402CFA04F130430A
:10156000F0BD80EA010221FA0EF3002162FA0EF2C8
:1015700060465A40F0BD8C46B1FBF2F102FB11C34C
:101580001B0243EA1063B3FBF2FC02FB1C331B0299
:101590004CEA002043EA1063B3FBF2FC02FB1C336D
:1015A0001B024CEA002043EA1063B3FBF2FC02FB8F
:1015B0001C331B024CEA002043EA1063B3FBF2FC2D
:1015C00002FB1C324CEA002000237047B0B581EAD0
:1015D000030C0CF0004C40F2FF7515EA11541DBFCE
:1015E00015EA1357AC42AF4239E0E41923EA4553F8
:1015F00043F48013C90241F0004141EA505EC70242
:101600001100A7FB020200284FF00000EEFB0120B2
:101610004FF00001E3FB072118BF42F00102401820
:1016200000214941E3FB0E01A4F580640F0302D2BF
:1016300052004041494154F101046CDD470872F108
:10164000004250F1000051EB0451A1F580115CBF44
:1016500041EA0C01B0BD4CEA05510020B0BD05EADD
:101660001357AC4214BFAF4241E050EA410E1CBFD9
:1016700052EA430E02E061460020B0BD24423C44E1
:101680001BD15FEA070EF6D0090302BF0146002016
:10169000AEF1140EB1FA81F7AEEB070401FA07FEC2
:1016A0000C37C7F1200100FA07F7C8404EEA000ED8
:1016B00023EA455343F48013A2E733F00043B3FA1F
:1016C00083F704BFB2FA82FE77440B3FE41BB7F105
:1016D000200E2FBF02FA0EF3BB40C7F1200E22FAF4
:1016E0000EFE38BF43EA0E03BA40641C82E750EA9C
:1016F000410E14BF52EA430E6FF000014FF4001781
:1017000017EB430F8ABF194617EB410FB5E74CEAB9
:1017100005510020B0BDD4F10104B4F120070FDA67
:10172000C4F12007520828BF42F0010210FA07F561
:1017300001FA07F7E1BF2A43E0403843E1400FE0F8
:10174000352C98DCC7F1200452EA400220FA07F257
:1017500018BF42F0010231FA07F0A1400A4300210C
:1017600072F1004250F1000051EB0C01B0BD0000DD
:1017700062B38B0708D0521E11F8013B00F8013B01
:1017800000F024808B07F6D1830740F0208000BF53
:10179000103A07D330B4B1E83810103AA0E8381046
:1017A000F9D230BC530724BFB1E80810A0E80810F4
:1017B00044BF51F8043B40F8043BD20724BF31F842
:1017C000022B20F8022B44BF0B7803707047121FC6
:1017D00017D35B0009D151F8043B20F8023B1B0CE6
:1017E000121F20F8023BF6D20BE051F8043B00F840
:1017F000013B1B0A20F8023B1B0C121F00F8013BA7
:10180000F3D238BF121D521E24BF11F8013B00F85D
:10181000013BF8D87047000010B5144600F002F8FC
:10182000226010BDC1F30A5343B14A0012F5001FF4
:1018300028D2A3F2FE32A1EB0251704750EA410CCC
:1018400020D001F0004C31EA0C01B1FA81F204BF62
:10185000B0FA80F3D2180B3AB2F120032CBF00FA91
:1018600003F1914041EA0C013EBFC2F1200C20FA85
:101870000CF319439040524240F2FD33D21A01EB6F
:1018800003517047002270474FF4001C1CEB410FBE
:1018900094BF1CEB430F09E041EA030C50EA4C0CE7
:1018A00052EA0C0C03D2994208BF9042704714BF11
:1018B0008B428242704700004FF4001C1CEB410F2A
:1018C00094BF1CEB430F09E041EA030C50EA4C0CB7
:1018D00052EA0C0C03D28B4208BF8242704714BFFD
:1018E0009942904270470000124254D440F2FF7C6B
:1018F0001CEA11530FD0634531D09B1863453CBFA0
:1019000001EB0251704701F0004141EA0C51002007
:10191000AFF30080704750EA410320D001F0004C43
:1019200091EA0C011CD0B1FA81F30B3B9A420DD91C
:10193000D21A994051EA0C01C3F1200C20FA0CFC98
:1019400061449840531C40F2FF7CD7E7914041EA44
:101950000C01C2F1200C20FA0CF31943904070479F
:10196000B0FA80F31533202BE0D3202AEED3203AAF
:10197000203B9A4209D9D21A00FA03F141EA0C013C
:101980000020531C40F2FF7CB8E700FA02F141EA64
:101990000C0100207047524240F2FF7C1CEA1153B8
:1019A0000DD06345DBD0B2EB030C3CBFA1EB025181
:1019B00070470CF1010221EA035141F4801150EA11
:1019C000410CCCD001F0004C352A27DC30B481EA40
:1019D0000C01B2F1200309DAC2F12003044601FA36
:1019E00003F5D0402843D1409C400CE0C3F12002D5
:1019F000450020FA03F418BF44F0010421FA03F073
:101A000091400C43002174F1004550F1000051EB6E
:101A10000C01244230BC7FF47BAF7047614600204C
:101A200076E70000C1F30A5340F2FE329B1A14DD40
:101A3000D3F120034FEAE17208DDC90241EA5051B7
:101A400041F00040D84080185040704703F2E13028
:101A500010B1D24382F00040704700207047000070
:101A6000C11768B14840401AB0FA80F29040D21CC9
:101A7000C907C2F5846241EA025202EBD021400557
:101A80007047000070B44FF0004591EA030F40F139
:101A9000B5816B40841A71EB030603D2001BB14180
:101AA000121973414FF4001C1CEB410F34BF7CEB47
:101AB000430442E00C0DA4EB1356352E4FDC45EAEF
:101AC000C323DB0A45EAC121C912B6F120050DDDA9
:101AD00063FA05F6EB4086EA0305124218BF45F0AB
:101AE0000105C01851F100010CD213E062FA06F5AD
:101AF000F2405540F3415A40B340F3405A408018F9
:101B0000594107D349085FEA30005FEA350528BF2D
:101B100045F0010501F58011420875F1004250F1D0
:101B2000000041EB04514E0016F5001F70BC38BF99
:101B300070470020090D090570471CEB410F10D2BA
:101B400052EA43060BD0BCEB410F05D80C0DAB435A
:101B5000661E342EB6DD02E0AB438018594170BCDE
:101B6000704770BC70470000F0B540F2FF7581EA25
:101B7000030C0CF0004C15EA11541DBF15EA135765
:101B8000AC42AF42E5E0BC41C1F31301C3F3130320
:101B9000801A994143F4801304D2641E40004941E5
:101BA00080185941C90241EA5051B1FBF3F603FBD9
:101BB0001611A2FB0675D7EBC020A94102D2761EF2
:101BC00080185941C90241EA5051B1FBF3FE03FBB1
:101BD0001E11A2FB0E75D7EBC020A94103D2AEF1B6
:101BE000010E80185941890241EA9051760546EA72
:101BF0008E2EB1FBF3F603FB1611A2FB0675D7EB95
:101C00008020A94102D2761E80185941C90241EABA
:101C100050514EEA060EB1FBF3F603FB1611A2FB80
:101C20000675D7EBC020A94102D2761E8018594113
:101C3000C90241EA5051B1FBF3F703FB1711A2FBB4
:101C40000735D3EBC020A94167F100070CBF004264
:101C500047F0010766F3D5274FEA1E31B80814F59F
:101C6000806412DDBD0775F1004250EB0E5051EB60
:101C7000045111F5801F5CBF41EA0C01F0BD4CF02E
:101C80007F6141F0E0410020F0BDBD076D0840EAF2
:101C90000E5041F48011D4F10104B4F120060ADAA7
:101CA000C4F120060200E04001FA06F3E1401843C7
:101CB000B24015430EE0342C13DCC6F1200445EA93
:101CC00040056D0820FA06F2154321FA06F0A140FE
:101CD0000D43002175F1004250F1000051EB0C0161
:101CE000F0BD00205FEA0C01F0BDCFB992185B4156
:101CF000B3FA83F704BFB2FA82F6BF190B3FB7F10C
:101D000020062FBF02FA06F3BB40C7F1200622FAD5
:101D100006F638BF3343BA401CB1E419641E33E7FA
:101D20007F4231F00041B1FA81F404BFB0FA80F68D
:101D3000A4190B3CB4F120062FBF00FA06F1A14014
:101D4000C4F1200620FA06F638BF3143A0403C1B00
:101D50001AE7AC421ABF05EA1357AF4212E050EA45
:101D600041061CBF52EA4306BFE750EA410730462E
:101D700061461CBF41EA0551F0BD52EA430C08BF61
:101D8000C143F0BD00204FF4001616EB410F98BF81
:101D900016EB430F08BF16EB410F24BFC14305E00C
:101DA00016EB430F0CBF61464CEA0551F0BD000035
:101DB000400D491840EA81200CD2490DA1F58061FF
:101DC000491C40F0004005DBD1F11F0154BFC84061
:101DD000C017704700207047014648B1B0FA80F143
:101DE0008840C91CC1F58461090501EBD02140057B
:101DF0007047012000F0B8B870470000841A71EBFA
:101E0000030604D26E40001BB141121973414FF416
:101E1000001C1CEB410F34BF7CEB430683E00C0D30
:101E2000A4EB1356362E00F37C80012E45EAC32323
:101E300041DC43EA525312BFD20292025B082405EE
:101E400045EAC12141EA5051D2EBC020994125D445
:101E500007D1B0FA80F610FA06F162D000202036E1
:101E600008E0B1FA81F6B140C6F1200220FA02F290
:101E70001143B0404FEAF474B4EB465434F0010619
:101E80004FEA74040AD8D6F50016760D04F0004423
:101E9000F04061FA06F25040F1404840C00A40EA82
:101EA000415021F0004128BF5FEA500550F1000089
:101EB00044EBD12135E0DB0A45EAC121C90AB6F17C
:101EC00020050EDD42EA0242120CC5F1200603FA9B
:101ED00006F6EB4042EA06056D42984161F10001C9
:101EE0000DE062FA06F5F240554063FA06FC82EA1C
:101EF0000C02F3405A406D42904161EB030111F432
:101F0000801F05D1641E620502D06D004041494129
:101F100021F48011430875F1004350F1000041EBBA
:101F2000045170BC70471CEB410F15D223F00043E5
:101F300052EA43060BD04FEA4C0CBCEB410F04D8DD
:101F40000C0D661E342EB7DDEBE7801A994150EA7E
:101F5000410608BF0021E4E708BF1CEB430F28BF80
:101F60006FF00001DDE70000202109032631182071
:101F7000ABBEF9E7DFF800F01104FF1FDFF800F057
:101F80003504FF1F10B50E20DFF8241A0A68C2407E
:101F9000D2071AD50A68012313FA00F0104308602B
:101FA000DFF8104ADFF8101A2288BC20424311449F
:101FB0000420FFF7DFFF2088792802DB0020208043
:101FC0001BE02088401C208017E00F200A68C240D8
:101FD000D20712D50A68012313FA00F010430860F3
:101FE0000020DFF8D01908800120DFF8D019087030
:101FF0001921DFF8CC0900F0F7FE10BD70B500F034
:1020000023F8DFF8B84920780028FAD01121DFF84A
:10201000B00900F0E9FEFFF7B1FF00F0A8F9DFF822
:10202000A459DFF89469300000F035FD2870297854
:10203000300000F067FE00F08CFA00F0FDFA00F0CE
:10204000F3F900202070DCE71FB50020ADF80C008C
:1020500000F071FB03AA00215C2000F0EDFC0028D9
:1020600040F00881BDF80C0041F22431884206D0CE
:10207000DFF854290121022001F09AF8FEE7DFF889
:102080004C290121022001F093F8BC21782000F0B6
:10209000F2F8012000F04AF90122AC21B82000F04A
:1020A00097FC4FF4F072AD21B82000F091FC0422AF
:1020B0002C21B82000F08CFC8022C221B82000F036
:1020C00087FC00220F21B82000F082FC40F20112B0
:1020D0000F21B82000F07CFC4FF4C4720721B82017
:1020E00000F076FC00227021B82000F071FC40F274
:1020F00003342200AF21B82000F06AFC0122AC2199
:10210000B82000F065FC4FF4F072AD21B82000F06B
:102110005FFC3222AB21B82000F05AFC45F62002C9
:10212000B021B82000F054FC22001C21B82000F09F
:102130004FFC42F62E521321B82000F049FC40F229
:10214000C7322021B82000F043FC10222421B820FF
:1021500000F03EFC03222B21B82000F039FC0322C2
:102160002F21B82000F034FC40F2BB120821B82027
:1021700000F02EFC40F2D9120921B82000F028FC12
:1021800064220A21B82000F023FC1A223221B82050
:1021900000F01EFCE8220B21B82000F019FC40F2F0
:1021A00003120F21B82000F013FC3C22A521B82017
:1021B00000F00EFC48F210023521B82000F008FCB7
:1021C00003220C21B82000F003FC09220E21032079
:1021D00000F011FE8A220F21032000F00CFE0121E5
:1021E0005A2001F07DF8DFF8E44A002300220D2197
:1021F000200000F0B7FD002300220021200000F0A5
:10220000B1FD002300220121200000F0ABFD0023DE
:1022100000220221200000F0A5FD0023002203215E
:10222000200000F09FFD002300220421200000F088
:1022300099FD002300220521200000F093FD0023DA
:1022400000220621200000F08DFD0023002207213E
:10225000200000F087FD01200290BC2001900020AA
:1022600000906D23DFF85027DFF8641A042001F096
:1022700045F81FBDFEE738B504000D00002240F20E
:10228000F120290089B2890081420FDA210089B248
:10229000890040F2E113994208DAADB2AD00A4B270
:1022A000A40052F0020252F0080213E0290089B2A1
:1022B000490081420EDA200080B2400040F2E11174
:1022C000884207DAADB26D00A4B2640052F0010298
:1022D00052F0040252F0300292B20D21B82000F008
:1022E00077FB2A0092B20421B82000F071FB220093
:1022F00092B20321B82000F06BFBADB2D5F53C756E
:10230000022095FBF0F2521C92B20121B82000F09D
:102310005FFBA4B2D4F5F074022094FBF0F2121D1E
:1023200092B20221B82000F053FB31BD1CB504006D
:102330000020ADF800006A46AF21B82000F07CFB19
:10234000E4B2012C09D1BDF8002052F0030292B290
:10235000AF21B82000F03CFB08E0BDF800204FF6AC
:10236000FC700240AF21B82000F032FB13BD38B53D
:1023700084B000200020002200200CE0DFF8543957
:102380005E2404FB00F423445B5C52FA83F2491C94
:102390005E29F3DB401C3C2801DA0021F8E73C20F1
:1023A000B2FBF0F05E21B0FBF1F5DFF818462B0030
:1023B000DBB22278DFF82019684601F0EDF86A46B2
:1023C0000121502000F0F4FEEDB2072045430A2021
:1023D00095FBF0F00A30002000E0401C3C2821DA98
:1023E00000215E29F9DA2278DFF8E8385E2505FB5E
:1023F00000F52B445B5C9A4209D3DFF8E028BC234C
:1024000003FB00F31A44002322F8113008E0DFF840
:10241000CC28BC2303FB00F31A44012322F811301B
:10242000491CDEE705B030BD70B50020002000205B
:1024300008247DE00021BC22DFF8A0382000C0B2D3
:10244000504318442E00F6B230F81600002801D090
:1024500051F001012000C0B2504318442E00F6B2E2
:1024600000EB4600B0F8BC00002801D051F002019A
:102470002000C0B2504318442E00F6B200EB4600D4
:10248000B0F87801002801D051F004012000C0B25A
:10249000504318442E00F6B200EB4600B0F8340268
:1024A000002801D051F008012000C0B25043184468
:1024B0002E00F6B200EB4600B0F8F002002801D082
:1024C00051F010012000C0B2504318442E00F6B263
:1024D00000EB4600B0F8AC03002801D051F0200119
:1024E0002000C0B2504318442E00F6B200EB460064
:1024F000B0F86804002801D051F040012000C0B2BB
:1025000002FB00F203EB02002A00D2B200EB420011
:10251000B0F82405002801D051F080010800C0B2B5
:1025200000F016FD6D1C2800C0B25E2882DB083466
:102530002000C0B238280BDA2000C0B2082190FB7E
:10254000F1F1491CC9B2122000F051FD0025EAE763
:1025500070BD30B4012100E0491C3B296ADA012238
:102560005D2AF9DABC23DFF8744703FB01F020444D
:1025700030F81200002831D003FB01F0204430F87D
:102580001200012854D103FB01F0204400EB42006B
:1025900030F8BC0C03FB01F5254405EB4205B5F80A
:1025A000BC5015FA80F003FB01F5254405EB42050C
:1025B0006D8810FA85F003FB01F5254405EB420513
:1025C00035F8025C10FA85F0022831DA03FB01F3DA
:1025D00004EB0300002320F8123029E003FB01F094
:1025E000204400EB420030F8BC0C03FB01F525440D
:1025F00005EB4205B5F8BC5015FA80F003FB01F578
:10260000254405EB42056D8810FA85F003FB01F5C2
:10261000254405EB420535F8025C10FA85F00328E5
:10262000AADB03FB01F304EB0300012320F81230C3
:10263000521C95E730BC704710B4002000230821DD
:102640000EE0DFF89806BC2404FB01F4204430F8C7
:102650001200002800D05B1E521C2F2AF1DB491CFF
:10266000182911DA2F220BE0DFF87006BC2404FBD6
:1026700001F4204430F81200002800D05B1C521CEA
:102680005E2AF1DB0022E8E7DFF85406036000234E
:1026900018210EE0DFF84406BC2404FB01F42044BA
:1026A00030F81200002800D05B1E521C2F2AF1DBEC
:1026B000491C282911DA2F220BE0DFF82006BC2460
:1026C00004FB01F4204430F81200002800D05B1C09
:1026D000521C5E2AF1DB0022E8E7DFF808060360FF
:1026E000002328210EE0DFF8F405BC2404FB01F4EC
:1026F000204430F81200002800D05B1E521C2F2A04
:10270000F1DB491C382911DA2F220BE0DFF8CC0568
:10271000BC2404FB01F4204430F81200002800D04F
:102720005B1C521C5E2AF1DB0022E8E7DFF8B805EB
:10273000036010BC704710B5DFF8B04501230122DB
:102740000021200000F00EFBDFF8A405016851F025
:1027500003010160012301220121200000F002FB9E
:10276000DFF89005016851F00301016010BD000021
:102770000020002001E000BF401C0100C9B2642914
:10278000F9DB704710B5DFF87005016851F0020100
:102790000160016851F001010160FFF7E9FFDFF816
:1027A0004C45206850F001002060206850F0020085
:1027B0002060FFF7DDFF2068400840002060FFF741
:1027C000D7FF206830F002002060FFF7D1FF10BD76
:1027D00010B5DFF82405016851F0020101600168BD
:1027E00051F001010160FFF7C3FFDFF800452068E9
:1027F000400840002060FFF7BBFF206850F0020057
:102800002060FFF7B5FF206850F001002060FFF75F
:10281000AFFF10BDF8B50500DFF8DC44206850F0CC
:1028200001002060002620E0DFF8C00401684908AC
:102830004900016007E02806F6D5DFF8B00401681A
:1028400051F0010101606D00FFF792FFDFF89C7409
:10285000386850F002003860FFF78AFF386830F0BF
:1028600002003860FFF784FF761C3000C0B20828F1
:10287000E1DBDFF87854286850F001002860206818
:10288000400840002060FFF773FF286850F0020006
:102890002860FFF76DFFDFF86404046814F001049A
:1028A000286830F002002860FFF762FF2000C0B205
:1028B000F2BDF8B5DFF84054286850F002002860F7
:1028C0002868400840002860002613E0DFF81C74E8
:1028D000386830F002003860FFF74AFF386850F07F
:1028E00002003860FFF744FFDFF81004006840087A
:1028F0006441761C3000C0B20828E7DBDFF8EC0347
:10290000016831F002010160286850F00100286080
:10291000FFF72EFF2000C0B2F2BD10B5DFF8D803DC
:10292000016851F002010160016851F0010101608C
:10293000DFF8B843206830F00200206020684008CB
:1029400040002060FFF714FF206850F00200206074
:10295000FFF70EFF206830F002002060FFF708FF4D
:1029600010BD10B5DFF89003016851F0020101605D
:10297000016851F001010160DFF87043206830F018
:1029800002002060FFF7F4FE206850F00100206094
:10299000FFF7EEFE206850F002002060FFF7E8FE2F
:1029A000206830F002002060FFF7E2FE10BD00005A
:1029B000A0C00440049FFF1FBC04FF1F079FFF1F10
:1029C00000F00F40069FFF1F1C3F0000243F000047
:1029D0002DE9F04104000D001600002700E07F1CE7
:1029E0003800C0B2032825DAFFF7CCFE2000C0B2C1
:1029F000FFF710FFC0B20128F1D02800C0B2FFF7E6
:102A000009FFC0B20128EAD0300080B2000AC0B28B
:102A1000FFF700FF3000C0B2FFF7FCFE80464046E3
:102A2000C0B20128DBD0FFF7D3FE5FFA88F8B8F117
:102A3000000FD4D1BDE8F081F8B504000D001600F8
:102A400000276400FFF79EFE2000C0B2FFF7E2FE01
:102A5000C7192800C0B2FFF7DDFEC719FFF792FEC5
:102A6000641C2000C0B2FFF7D5FEC719FFF721FF95
:102A70003080FFF752FF308800023080FFF719FFE7
:102A8000318851FA80F03080FFF76BFFFFF7A0FE2E
:102A90003800C0B2F2BD2DE9F84FCCB05FF0000BAA
:102AA0005FF0000A002700210021002100218DF89D
:102AB0000810002105E000220CAB0C0024B21A55CE
:102AC000491C0A0012B2B2F5807FF4DB002116E047
:102AD000BC240CAA11FB04F505441E0036B2AD5D02
:102AE00011FB04F404441E0036B2A45D145D641CA2
:102AF00054555B1C1A0012B2BC2AE9DB491C0A00BF
:102B000012B2782A01DA0023F4E7002600E0761CEE
:102B1000300000B2B0F5807F05DA0CA8310009B2B0
:102B2000405C0028F3D0FF2400E0641E3000210048
:102B300000B209B2884205DA0CA8310009B2405C43
:102B40000028F2D02000310000B209B2884202D140
:102B50002000C0B2B7E0300000B2401C210009B232
:102B6000884202D13000C0B2ADE0300006E00CA9CE
:102B7000020012B2895C5BFA81FB401C210002005A
:102B800009B212B29142F2DA0025310008E00CA835
:102B90000A0012B2825C080000B200FB0255491C18
:102BA00020000A0000B212B29042F0DA002054492C
:102BB000CDE904017EE00DF13008300000B218F8D4
:102BC00000001AEB000ABBEB0A095046FFF704F9B4
:102BD000CDE900015846FFF7FFF802000B00DDE9E0
:102BE0000001FEF7C1FFCDE90A014846FEF738FFB4
:102BF000CDE900015846FFF7EFF802000B00DDE9D0
:102C00000001FEF7B1FFCDE90801300000B218F86D
:102C10000010300000B200FB0177B5EB0708380068
:102C2000FFF7DAF8CDE900015046FFF7D5F80200CA
:102C30000B00DDE90001FEF797FFCDE906014046F4
:102C4000FEF70EFFCDE900014846FEF709FF02003E
:102C50000B00DDE90001FEF787FF80468946DDE9CC
:102C60000A23DDE90801FEF7B1FCCDE90001DDE949
:102C7000060142464B46FEF705FFDDE90023FEF75D
:102C8000A5FCCDE90001DDE9060142464B46FEF711
:102C9000F9FEDDE90023FEF799FC02000B00DDE9F7
:102CA0000401FEF7F1FD04D2CDE9042330008DF8D4
:102CB0000800761C3000210000B209B28842FFF6FD
:102CC0007AAF9DF808004DB0BDE8F08FC0F00F401E
:102CD000D0F00F40DC5CFF1F043F0000E472FF1FD8
:102CE000F49EFF1FF89EFF1FFC9EFF1F00F10F4088
:102CF00000D0044004D0044014F10F4010F10F4004
:102D00000000F0BFF8B504000D0000200020FF21F6
:102D1000042000F03EFD002600E0761C782E1FDA2D
:102D20000027BC2FF9DABC2000FB06F12144C95D65
:102D30002A00D2B2914205D200FB06F121440022C2
:102D4000CA5504E000FB06F12144FE22CA5500FBEF
:102D500006F02044C15D042000F01BFD7F1CE0E76D
:102D6000F1BD000070B46D4C256855F478552560B0
:102D700005006B4EAD1B08D0403D08D0403D08D04B
:102D8000403D08D0403D08D009E0664C07E0664C65
:102D900005E0664C03E0664C01E0664CFFE74FF44B
:102DA000807544F82150D2B2012A14D1012445691A
:102DB00014FA01F215434561012B05D1026814FA9A
:102DC00001F1114301600DE0026814FA01F132EAE9
:102DD0000101016006E04269012313FA01F132EAC0
:102DE0000101416170BC70470268012313FA01F1CF
:102DF00051400160704738B5484B1C684FF400756E
:102E000085402C431C604D4B0400E4B253F8243041
:102E10000C00E4B21500EDB22D0415F47025D2B209
:102E2000D209D2B22A4352F4817243F82420424A92
:102E30000300DBB252F823305B69012414FA01F17C
:102E400033EA01010300DBB252F823205161C0B222
:102E5000573000F0EEF931BD002039490A68C24010
:102E6000D20705D50A68012313FA00F01043086061
:102E700001200A68C240D20705D50A68012313FA67
:102E800000F010430860704700202E490A68C240D5
:102E9000D20705D50A68012313FA00F01043086031
:102EA00001200A68C240D20705D50A68012313FA37
:102EB00000F0104308607047002023490A68C240B0
:102EC000D20705D50A68012313FA00F01043086001
:102ED00001200A68C240D20705D50A68012313FA07
:102EE00000F0104308607047002018490A68C2408B
:102EF000D20705D50A68012313FA00F010430860D1
:102F000001200A68C240D20705D50A68012313FAD6
:102F100000F0104308607047000000003880044053
:102F200000F00F400090044000A0044000B00440B6
:102F300000C0044000D004407C04FF1F9004FF1F29
:102F4000A0900440A0A00440A0B00440A0D0044041
:102F50000822DFF8D032196851F40021196019688D
:102F600031F48031196014E0196831F400311960CE
:102F700005E00106F8D5196851F4003119601968A7
:102F800051F48031196000BF196831F48031196043
:102F9000400011004A1EC9B20029EAD17047000062
:102FA0000822DFF88032196831F4002119601968AD
:102FB00031F48031196014E0196831F4003119607E
:102FC00005E00106F8D5196851F400311960196857
:102FD00051F48031196000BF196831F480311960F3
:102FE000400011004A1EC9B20029EAD1704710B54D
:102FF0000400B1F15000C0B2FFF7D2FF2000C0B210
:10300000000950F01000C0B2FFF7CAFF14F00F041F
:1030100054F001042000C0B2FFF7C2FF10BD70B52C
:103020000400002509E02000C0B2FFF791FF761CE4
:103030003000C0B28028F6DB6D1C2800C0B2082822
:103040000CDAB5F15000C0B2FFF7AAFF0120FFF77C
:10305000A7FF1020FFF7A4FF0026E9E770BD38B5F1
:10306000002408E00020FFF773FF6D1C2800C0B2A9
:103070008028F7DB641C2000C0B208280CDAB4F109
:103080005000C0B2FFF78CFF0120FFF789FF10202E
:10309000FFF786FF0025E9E731BD06E040F2375231
:1030A00011004A1E0029FBD1401E0028F6D17047AE
:1030B00010B5DFF870410023012213212000FFF733
:1030C00051FE0023012212212000FFF74BFE0023B6
:1030D000012211212000FFF745FE002301221021CB
:1030E0002000FFF73FFE206850F480302060206809
:1030F00030F4802020603220FFF7CFFF206850F4AA
:1031000080202060AE20FFF74BFF0020FFF748FF34
:103110001020FFF745FF4020FFF742FF8120FFF717
:103120003FFFC820FFF73CFFA120FFF739FFC82071
:10313000FFF736FFA620FFF733FFD320FFF730FF5E
:103140000020FFF72DFFD520FFF72AFF8020FFF793
:1031500027FFD920FFF724FFF120FFF721FFDA2016
:10316000FFF71EFF1220FFF71BFFDB20FFF718FF02
:103170004020FFF715FF2020FFF712FF0020FFF788
:103180000FFF8D20FFF70CFF1420FFF709FFA4208D
:10319000FFF706FFA620FFF703FFAF20FFF700FFB2
:1031A0000020FFF73CFF00210020FFF720FF10BDAB
:1031B0002DE9F84304000D00160000200020002730
:1031C00014E0DFF864104A46D2B20620424301EB15
:1031D00002004146C9B2405CFFF7BAFE18F101088F
:1031E0004046C0B20628ECDBA41D7F1C3800C0B2EC
:1031F000305C002813D03800C0B2305CB0F1200938
:103200002000C0B27F2801DB00246D1C2900C9B258
:103210002000C0B2FFF7EBFE5FF00008E0E7BDE87A
:10322000F183000080F00F40E0380000254908607D
:1032300070475C2800DB5B20202190FBF1F1002926
:1032400003D0022929D014D33AE02022012190FB97
:10325000F2F302FB130211FA02F21B4B1A60202256
:1032600090FBF2F302FB130011FA00F0174908601B
:1032700026E02022012190FBF2F302FB130211FA57
:1032800002F2134B1A60202290FBF2F302FB1300B0
:1032900011FA00F00F49086012E02022012190FB92
:1032A000F2F302FB130211FA02F20B4B1A60202216
:1032B00090FBF2F302FB130011FA00F007490860DB
:1032C0007047000008ED00E080E200E000E100E06F
:1032D00084E200E004E100E088E200E008E100E0D0
:1032E0005C2800DB5B20102900DB0F2100F160402F
:1032F00010F5644009010170704700002DE9F047A6
:103300001D00089C2300DBB2002B01D101230CE03F
:103310002300DBB2012B01D1022306E02300DBB244
:10332000022B01D1042300E010230A9E099FDFF83D
:1033300048C2DCF800E05EF0020ECCF800E0DFF8F6
:103340003CC2DCF800E05EF0020ECCF800E0DFF8F2
:1033500030C286465FFA8EFE5FEA4E1E4CF80E10B3
:1033600086465FFA8EFE5FEA4E1EE644CEF81020D7
:10337000002286465FFA8EFE5FEA4E1EE644AEF8F5
:1033800004201A00D2B286465FFA8EFE5FEA4E1E15
:10339000E644AEF814202200D2B2120212F4E06227
:1033A000A6465FFA8EFE1EF0070E5EEA0202864611
:1033B0005FFA8EFE5FEA4E1EE644AEF806203A0043
:1033C0005204520C86465FFA8EFE5FEA4E1EE644B9
:1033D000AEF816203A00D205D20D86465FFA8EFE70
:1033E0005FEA4E1EE644AEF81E20DFF89821D2F8C0
:1033F00000E03EF0800EC2F800E01A00D2B286462D
:103400005FFA8EFE5FEA4E1EE644CEF808200022E8
:1034100086465FFA8EFE5FEA4E1EE644CEF80C202A
:10342000B20601D47F4200E000270200D2B252016E
:10343000624497610A220700FFB27F016744BA83A2
:103440002A00D2B25209343252F080024E4FC0B23A
:103450003A544FF400724D4F3868AC465FFA8CFC1A
:103460005FEA5C1C12FA0CFC5CEA000038605FF05A
:10347000010CDFF81CE12800C0B240115EF820000A
:10348000A8465FFA88F85FEA68185EF82880D8F8DE
:10349000148015F01F091CFA09F938EA0908C0F868
:1034A0001480DFF8F0802800C0B2401158F82000E6
:1034B000A9465FFA89F919F01F09B2465FFA8AFA3C
:1034C0001AF0030AF6B2B609F6B256EA0A4656F4FC
:1034D000807640F829602800C0B2002801D0012081
:1034E00000E000202E00F6B276115EF82660EDB204
:1034F0006D115EF825506D691CFA00FC35EA0C0C64
:10350000C6F814C038680D00AD0915F00705AA40CB
:1035100002433A60E4B2002C03D0022C09D004D359
:103520000BE000200A1D107007E000200A1D10802B
:1035300003E000200A1D1060FFE70800103810F0BB
:103540003F00DBB2DB0053FA80F20CE00B009B097A
:1035500013F0070358F823300400E4B24FF48175E8
:1035600043F82450401C03001400DBB2E4B2A34231
:10357000ECD3BDE8F0870000408004403C8004406C
:10358000009000400080004000100240388004405D
:103590007C04FF1F9004FF1F0CB430B583B00A46B3
:1035A00006A90291044600250194009502AB01A9E9
:1035B000084878441E30FCF749FF019A157000282E
:1035C0004EBF04460198041B204603B030BC5DF892
:1035D0000CFB00BFEFDCFFFF30B40200D2B2002AC8
:1035E00008D0022A24D014D3042A39D02CD3052A97
:1035F00042D04DE0DFF89C22136853F480631360DF
:103600004FF44072DFF890321A60DFF890321A609F
:103610003EE0DFF88022136853F4006313604FF438
:103620004072DFF87C321A60DFF878321A602FE0DF
:10363000984A136853F4805313604FF440729A4BC6
:103640001A609A4B1A6023E0924A136853F40053AD
:1036500013604FF44072964B1A60964B1A6017E055
:10366000954A136853F4806313604FF44072934B90
:103670001A60934B1A600BE08F4A136853F400638F
:1036800013604FF440728F4B1A608F4B1A60FFE744
:103690008E4B0200D2B253F82220D27812F0F302FD
:1036A0000400E4B253F82440E2700200D2B253F8AE
:1036B000222092780400E4B253F82440A270020061
:1036C000D2B2002A03D00200D2B2012A04D1804A29
:1036D0001478804A544303E07F4A14787D4A544367
:1036E0000A01B4FBF2F21500ADB2B5F5005F01DBE3
:1036F00041F6FF72B4FBF1F4110089B2B4EB01148E
:103700000100C9B253F821100D7815F0E005C2F39D
:1037100004210D430100C9B253F821100D700100BE
:10372000C9B253F821104A700100C9B253F82110F0
:10373000897A11F0E00114F01F040C430100C9B2B2
:1037400053F821108C720100C9B253F82110097C82
:1037500051F088010200D2B253F822201174010006
:10376000C9B253F82110C97851F00C01C0B253F816
:103770002000C17030BC704754490200D2B251F8E9
:10378000222012799206F7D5C0B251F82000C079F4
:1037900070474E4A0300DBB252F823301B791B06F8
:1037A000F7D5C0B252F82000C171704738B5040097
:1037B0000D0005E029782000C0B2FFF7EAFF6D1C7C
:1037C00028780028F6D131BD00B585B00020FFF77C
:1037D000D3FFC0B2020041496846FFF7DDFE6946EB
:1037E0000020FFF7E3FF05B000BD00B585B0012064
:1037F000FFF7C2FFC0B2020038496846FFF7CCFEAF
:1038000069460120FFF7D2FF05B000BD00B599B0B1
:103810000220FFF7B1FFC0B2020030496846FFF74F
:10382000BBFE69460220FFF7C1FF19B000BD00B51D
:1038300085B00320FFF7A0FFC0B202002749684609
:10384000FFF7AAFE69460320FFF7B0FF05B000BDF1
:1038500000B585B00420FFF78FFFC0B202001F49FA
:103860006846FFF799FE69460420FFF79FFF05B001
:1038700000BD00B585B00520FFF77EFFC0B2020095
:1038800016496846FFF788FE69460520FFF78EFF58
:1038900005B000BD348004403C90044038900440A2
:1038A0000CB0044010B004400CC0044008C00440F8
:1038B00040B0044044B004402880044064D0044038
:1038C00060D0044024D0044020D00440A404FF1F52
:1038D000099FFF1F40420F000A9FFF1FE03E0000AC
:1038E0000000000000000000002F000000000700A2
:1038F000070000147F147F1400242A7F2A1200621C
:1039000064081323003649552250000005030000C7
:1039100000001C224100000041221C000014083E4F
:1039200008140008083E0808000000A06000000815
:103930000808080800006060000000201008040269
:10394000003E5149453E0000427F40000042615127
:103950004946002141454B31001814127F100027C1
:1039600045454539003C4A49493000017109050384
:1039700000364949493600064949291E00003636B5
:103980000000000056360000000814224100001418
:1039900014141414000041221408000201510906F5
:1039A00000324959513E007C1211127C007F494976
:1039B0004936003E41414122007F4141221C007FA7
:1039C00049494941007F09090901003E4149497AB5
:1039D000007F0808087F0000417F4100002040412F
:1039E0003F01007F08142241007F40404040007F9B
:1039F000020C027F007F0408107F003E4141413EDF
:103A0000007F09090906003E4151215E007F091926
:103A100029460046494949310001017F0101003F23
:103A20004040403F001F2040201F003F4038403FA3
:103A30000063140814630007087008070061514907
:103A4000454300007F41410000552A552A5500009A
:103A500041417F0000040201020400404040404018
:103A6000000001020400002054545478007F4844B0
:103A7000443800384444442000384444487F0038E7
:103A80005454541800087E0901020018A4A4A47C10
:103A9000007F080404780000447D400000408084DA
:103AA0007D00007F102844000000417F4000007C22
:103AB00004180478007C080404780038444444382E
:103AC00000FC242424180018242418FC007C08047A
:103AD000040800485454542000043F444020003C53
:103AE0004040207C001C2040201C003C4030403CDA
:103AF000004428102844001CA0A0A07C004464546A
:103B00004C4414141414141470B445490C6854F43F
:103B100078540C600100C9B2002952D00100C9B22A
:103B200030291ED032291FD0602920D0642921D00D
:103B30006E2922D0782923D07D2924D0822925D02E
:103B40008C2926D0962927D0A02928D0AA2929D087
:103B5000B4292AD0C8292BD0E1292CD0FA292DD07C
:103B60002FE0182300222CE01823012229E018233B
:103B7000182226E018231A2223E018231F2220E00F
:103B8000132318221DE013231A221AE013231C22E8
:103B900017E00E23122214E00E23152211E00E234B
:103BA00018220EE00E231B220BE00E231E2208E03B
:103BB0000C231C2205E00B231E2202E00A231F22F5
:103BC000FFE7184980240C7013F01F03164C237074
:103BD000164C2368256855F47F052560144D154E55
:103BE0003560236012F01F0252F04002124B1A702F
:103BF000124A13789B06FBD513785B06FCD500238D
:103C00000B701178C1F381010329FAD10C490870B6
:103C10000878022190FBF1F00A49087070BC7047E7
:103C200038800440004006400440064000F0014057
:103C3000000027014480044005400640064006403D
:103C4000099FFF1F0A9FFF1F80B500F051F800F089
:103C500003F800F065F801BD80B51B4A1B4890428F
:103C600009D0002104E052F8213040F82130491CED
:103C7000B1F5826FF7D3FFF7D9FA154A154B1649FC
:103C8000C91A03E0187810705B1C521C0800411E12
:103C90000028F7D1114A1249891A02E00020107059
:103CA000521C0800411E0028F8D10E4A0E4B0F4945
:103CB000C91A03E0187810705B1C521C0800411EE2
:103CC0000028F7D101BD0000000000000000FF1F28
:103CD0007C04FF1F003E0000403E0000BC04FF1FAC
:103CE0000C9FFF1F1004FF1F483D0000B43D000063
:103CF00080B500F007F808490A884FF6FE700240C8
:103D00000A8001BD72B605484CF2205101804DF683
:103D10002811018062B67047002005400E20054042
:103D200080B572B6C820FFF7EFFEFFF7C1F9FFF7C5
:103D300096F95FF4E1310420FFF74EFC62B6FEF71E
:103D400083F9FEF75BF9FEE7064A0300DBB25B018D
:103D50001A44116104490A68012313FA00F0104360
:103D600008607047009000400C80004070B4002054
:103D7000002000220023002012E00C4CBC2505FB93
:103D800000F52C44645C0A4D5E2606FB02F63544C1
:103D9000EC545B1C891CBC29EFDB0023521C801CEB
:103DA000782801DA0021F6E770BC7047BC04FF1FD9
:103DB000DC5CFF1F0D48016851F00101016001202A
:103DC0000B49087070470B48016851F00101016010
:103DD00070470948016851F00101016070470748C8
:103DE000016851F001010160704700000C7103404F
:103DF000089FFF1F1C7103402C7103403C7103405E
:103E000000F00F4040F00F4080F00F40C0F00F4036
:103E100000F10F400090044000A0044000B00440B6
:103E200000C0044000D0044000A0064000B006409E
:103E300000C0064000D0064000A00E4000B00E407A
:103E40000A490868002008600020012070470849DE
:103E500008680020086000200120704705490868B4
:103E600000200860002001207047000050800340BF
:103E70005090034050800B4010B5074979441831E9
:103E8000064C7C44163404E00A68081D1144884737
:103E90000146A142F8D110BD080000001400000046
:103EA000D3D3FFFF509A0000BC04FF1F00000000A6
:103EB0000120C046002801D0FFF7DEFFAFF30080ED
:103EC0000020AFF30080FFF72BFF00F000F800F0B8
:103ED00001B8000007463846FEF746F8FBE7000049
:103EE000C4E3B7A2CBCDB5C4CAFDBEDDCEAAA3BA8A
:103EF00025630A000248016851F0800101607047A3
:103F000000000440253033643A253033640000005B
:103F1000AFF30080AFF30080FFF7CAFF56303334B1
:0C3F2000204E470056303334204F4B0039
:0400000500003F11A7
:00000001FF
